{
  "contractName": "Voting",
  "abi": [
    {
      "anonymous": false,
      "inputs": [
        {
          "indexed": true,
          "internalType": "address",
          "name": "previousOwner",
          "type": "address"
        },
        {
          "indexed": true,
          "internalType": "address",
          "name": "newOwner",
          "type": "address"
        }
      ],
      "name": "OwnershipTransferred",
      "type": "event"
    },
    {
      "anonymous": false,
      "inputs": [
        {
          "indexed": false,
          "internalType": "uint256",
          "name": "proposalId",
          "type": "uint256"
        }
      ],
      "name": "ProposalRegistered",
      "type": "event"
    },
    {
      "anonymous": false,
      "inputs": [],
      "name": "ProposalsRegistrationEnded",
      "type": "event"
    },
    {
      "anonymous": false,
      "inputs": [],
      "name": "ProposalsRegistrationStarted",
      "type": "event"
    },
    {
      "anonymous": false,
      "inputs": [
        {
          "indexed": false,
          "internalType": "address",
          "name": "voter",
          "type": "address"
        },
        {
          "indexed": false,
          "internalType": "uint256",
          "name": "proposalId",
          "type": "uint256"
        }
      ],
      "name": "Voted",
      "type": "event"
    },
    {
      "anonymous": false,
      "inputs": [
        {
          "indexed": false,
          "internalType": "address",
          "name": "voterAddress",
          "type": "address"
        }
      ],
      "name": "VoterRegistered",
      "type": "event"
    },
    {
      "anonymous": false,
      "inputs": [],
      "name": "VotesTallied",
      "type": "event"
    },
    {
      "anonymous": false,
      "inputs": [],
      "name": "VotingSessionEnded",
      "type": "event"
    },
    {
      "anonymous": false,
      "inputs": [],
      "name": "VotingSessionStarted",
      "type": "event"
    },
    {
      "anonymous": false,
      "inputs": [
        {
          "indexed": false,
          "internalType": "enum Voting.WorkflowStatus",
          "name": "previousStatus",
          "type": "uint8"
        },
        {
          "indexed": false,
          "internalType": "enum Voting.WorkflowStatus",
          "name": "newStatus",
          "type": "uint8"
        }
      ],
      "name": "WorkflowStatusChange",
      "type": "event"
    },
    {
      "inputs": [
        {
          "internalType": "uint256",
          "name": "",
          "type": "uint256"
        }
      ],
      "name": "addresses",
      "outputs": [
        {
          "internalType": "address",
          "name": "",
          "type": "address"
        }
      ],
      "stateMutability": "view",
      "type": "function",
      "constant": true
    },
    {
      "inputs": [],
      "name": "currState",
      "outputs": [
        {
          "internalType": "enum Voting.WorkflowStatus",
          "name": "",
          "type": "uint8"
        }
      ],
      "stateMutability": "view",
      "type": "function",
      "constant": true
    },
    {
      "inputs": [],
      "name": "owner",
      "outputs": [
        {
          "internalType": "address",
          "name": "",
          "type": "address"
        }
      ],
      "stateMutability": "view",
      "type": "function",
      "constant": true
    },
    {
      "inputs": [],
      "name": "proposalId",
      "outputs": [
        {
          "internalType": "uint256",
          "name": "",
          "type": "uint256"
        }
      ],
      "stateMutability": "view",
      "type": "function",
      "constant": true
    },
    {
      "inputs": [
        {
          "internalType": "uint256",
          "name": "",
          "type": "uint256"
        }
      ],
      "name": "proposals",
      "outputs": [
        {
          "internalType": "uint256",
          "name": "id",
          "type": "uint256"
        },
        {
          "internalType": "string",
          "name": "description",
          "type": "string"
        },
        {
          "internalType": "uint256",
          "name": "voteCount",
          "type": "uint256"
        }
      ],
      "stateMutability": "view",
      "type": "function",
      "constant": true
    },
    {
      "inputs": [],
      "name": "renounceOwnership",
      "outputs": [],
      "stateMutability": "nonpayable",
      "type": "function"
    },
    {
      "inputs": [
        {
          "internalType": "address",
          "name": "newOwner",
          "type": "address"
        }
      ],
      "name": "transferOwnership",
      "outputs": [],
      "stateMutability": "nonpayable",
      "type": "function"
    },
    {
      "inputs": [
        {
          "internalType": "address",
          "name": "",
          "type": "address"
        }
      ],
      "name": "voters",
      "outputs": [
        {
          "internalType": "bool",
          "name": "isRegistered",
          "type": "bool"
        },
        {
          "internalType": "bool",
          "name": "hasVoted",
          "type": "bool"
        },
        {
          "internalType": "uint256",
          "name": "votedProposalId",
          "type": "uint256"
        }
      ],
      "stateMutability": "view",
      "type": "function",
      "constant": true
    },
    {
      "inputs": [],
      "name": "winningProposalId",
      "outputs": [
        {
          "internalType": "uint256",
          "name": "",
          "type": "uint256"
        }
      ],
      "stateMutability": "view",
      "type": "function",
      "constant": true
    },
    {
      "inputs": [
        {
          "internalType": "address",
          "name": "_address",
          "type": "address"
        }
      ],
      "name": "addVoter",
      "outputs": [],
      "stateMutability": "nonpayable",
      "type": "function"
    },
    {
      "inputs": [
        {
          "internalType": "address",
          "name": "_address",
          "type": "address"
        }
      ],
      "name": "isVoter",
      "outputs": [
        {
          "internalType": "bool",
          "name": "",
          "type": "bool"
        }
      ],
      "stateMutability": "view",
      "type": "function",
      "constant": true
    },
    {
      "inputs": [],
      "name": "startProposalsSession",
      "outputs": [],
      "stateMutability": "nonpayable",
      "type": "function"
    },
    {
      "inputs": [
        {
          "internalType": "string",
          "name": "_description",
          "type": "string"
        }
      ],
      "name": "addProposal",
      "outputs": [],
      "stateMutability": "nonpayable",
      "type": "function"
    },
    {
      "inputs": [],
      "name": "endProposalSession",
      "outputs": [],
      "stateMutability": "nonpayable",
      "type": "function"
    },
    {
      "inputs": [],
      "name": "startVotingSession",
      "outputs": [],
      "stateMutability": "nonpayable",
      "type": "function"
    },
    {
      "inputs": [
        {
          "internalType": "uint8",
          "name": "_proposalId",
          "type": "uint8"
        }
      ],
      "name": "addVote",
      "outputs": [],
      "stateMutability": "nonpayable",
      "type": "function"
    },
    {
      "inputs": [],
      "name": "endVotingSession",
      "outputs": [],
      "stateMutability": "nonpayable",
      "type": "function"
    },
    {
      "inputs": [],
      "name": "getTheWinningProposal",
      "outputs": [
        {
          "internalType": "uint256",
          "name": "",
          "type": "uint256"
        }
      ],
      "stateMutability": "nonpayable",
      "type": "function"
    },
    {
      "inputs": [],
      "name": "showWinnerProposal",
      "outputs": [
        {
          "internalType": "string",
          "name": "",
          "type": "string"
        },
        {
          "internalType": "uint256",
          "name": "",
          "type": "uint256"
        }
      ],
      "stateMutability": "view",
      "type": "function",
      "constant": true
    },
    {
      "inputs": [],
      "name": "getAddresses",
      "outputs": [
        {
          "internalType": "address[]",
          "name": "",
          "type": "address[]"
        }
      ],
      "stateMutability": "view",
      "type": "function",
      "constant": true
    },
    {
      "inputs": [],
      "name": "getProposalLength",
      "outputs": [
        {
          "internalType": "uint256",
          "name": "",
          "type": "uint256"
        }
      ],
      "stateMutability": "view",
      "type": "function",
      "constant": true
    },
    {
      "inputs": [
        {
          "internalType": "uint8",
          "name": "id",
          "type": "uint8"
        }
      ],
      "name": "getProposalById",
      "outputs": [
        {
          "internalType": "string",
          "name": "",
          "type": "string"
        }
      ],
      "stateMutability": "view",
      "type": "function",
      "constant": true
    }
  ],
  "bytecode": "0x608060405234801561001057600080fd5b5060006100216100c460201b60201c565b9050806000806101000a81548173ffffffffffffffffffffffffffffffffffffffff021916908373ffffffffffffffffffffffffffffffffffffffff1602179055508073ffffffffffffffffffffffffffffffffffffffff16600073ffffffffffffffffffffffffffffffffffffffff167f8be0079c531659141344cd1fd0a4f28419497f9722a3daafe3b4186f6b6457e060405160405180910390a3506100cc565b600033905090565b612496806100db6000396000f3fe608060405234801561001057600080fd5b50600436106101425760003560e01c8063a3ec138d116100b8578063e06752c21161007c578063e06752c214610628578063e47caad314610632578063edf26d9b1461063c578063ee74c67814610694578063f2fde38b1461069e578063f4ab9adf146106e257610142565b8063a3ec138d14610513578063a7771ee31461057d578063a7bfab16146105d7578063afe01043146105e1578063c64963c51461060a57610142565b80635e5c27ee1161010a5780635e5c27ee146103b0578063715018a61461043a5780638263a938146104445780638da5cb5b1461046257806391f74e3714610496578063a39fac12146104b457610142565b8063013cf08b1461014757806309406598146101fc5780632dfca445146102a65780632fdae3c5146102c45780635d814eab1461037f575b600080fd5b6101736004803603602081101561015d57600080fd5b8101908080359060200190929190505050610726565b6040518084815260200180602001838152602001828103825284818151815260200191508051906020019080838360005b838110156101bf5780820151818401526020810190506101a4565b50505050905090810190601f1680156101ec5780820380516001836020036101000a031916815260200191505b5094505050505060405180910390f35b61022b6004803603602081101561021257600080fd5b81019080803560ff1690602001909291905050506107f5565b6040518080602001828103825283818151815260200191508051906020019080838360005b8381101561026b578082015181840152602081019050610250565b50505050905090810190601f1680156102985780820380516001836020036101000a031916815260200191505b509250505060405180910390f35b6102ae6108b8565b6040518082815260200191505060405180910390f35b61037d600480360360208110156102da57600080fd5b81019080803590602001906401000000008111156102f757600080fd5b82018360208201111561030957600080fd5b8035906020019184600183028401116401000000008311171561032b57600080fd5b91908080601f016020809104026020016040519081016040528093929190818152602001838380828437600081840152601f19601f8201169050808301925050505050505091929192905050506108be565b005b6103ae6004803603602081101561039557600080fd5b81019080803560ff169060200190929190505050610acf565b005b6103b8610e0f565b6040518080602001838152602001828103825284818151815260200191508051906020019080838360005b838110156103fe5780820151818401526020810190506103e3565b50505050905090810190601f16801561042b5780820380516001836020036101000a031916815260200191505b50935050505060405180910390f35b610442610ef6565b005b61044c61107c565b6040518082815260200191505060405180910390f35b61046a611089565b604051808273ffffffffffffffffffffffffffffffffffffffff16815260200191505060405180910390f35b61049e6110b2565b6040518082815260200191505060405180910390f35b6104bc611317565b6040518080602001828103825283818151815260200191508051906020019060200280838360005b838110156104ff5780820151818401526020810190506104e4565b505050509050019250505060405180910390f35b6105556004803603602081101561052957600080fd5b81019080803573ffffffffffffffffffffffffffffffffffffffff1690602001909291905050506113a5565b6040518084151581526020018315158152602001828152602001935050505060405180910390f35b6105bf6004803603602081101561059357600080fd5b81019080803573ffffffffffffffffffffffffffffffffffffffff1690602001909291905050506113e9565b60405180821515815260200191505060405180910390f35b6105df61150a565b005b6105e9611716565b604051808260058111156105f957fe5b815260200191505060405180910390f35b610612611729565b6040518082815260200191505060405180910390f35b61063061172f565b005b61063a61193b565b005b6106686004803603602081101561065257600080fd5b8101908080359060200190929190505050611b47565b604051808273ffffffffffffffffffffffffffffffffffffffff16815260200191505060405180910390f35b61069c611b83565b005b6106e0600480360360208110156106b457600080fd5b81019080803573ffffffffffffffffffffffffffffffffffffffff169060200190929190505050611d72565b005b610724600480360360208110156106f857600080fd5b81019080803573ffffffffffffffffffffffffffffffffffffffff169060200190929190505050611f7d565b005b6003818154811061073357fe5b9060005260206000209060030201600091509050806000015490806001018054600181600116156101000203166002900480601f0160208091040260200160405190810160405280929190818152602001828054600181600116156101000203166002900480156107e55780601f106107ba576101008083540402835291602001916107e5565b820191906000526020600020905b8154815290600101906020018083116107c857829003601f168201915b5050505050908060020154905083565b606060038260ff168154811061080757fe5b90600052602060002090600302016001018054600181600116156101000203166002900480601f0160208091040260200160405190810160405280929190818152602001828054600181600116156101000203166002900480156108ac5780601f10610881576101008083540402835291602001916108ac565b820191906000526020600020905b81548152906001019060200180831161088f57829003601f168201915b50505050509050919050565b60045481565b600160058111156108cb57fe5b600060149054906101000a900460ff1660058111156108e657fe5b1461093c576040517f08c379a00000000000000000000000000000000000000000000000000000000081526004018080602001828103825260418152602001806123c06041913960600191505060405180910390fd5b60011515600160003373ffffffffffffffffffffffffffffffffffffffff1673ffffffffffffffffffffffffffffffffffffffff16815260200190815260200160002060000160009054906101000a900460ff16151514610a05576040517f08c379a00000000000000000000000000000000000000000000000000000000081526004018080602001828103825260158152602001807f596f75277265206e6f742072656769737465726564000000000000000000000081525060200191505060405180910390fd5b60036040518060600160405280600454815260200183815260200160008152509080600181540180825580915050600190039060005260206000209060030201600090919091909150600082015181600001556020820151816001019080519060200190610a749291906122a1565b506040820151816002015550506004600081548092919060010191905055507f92e393e9b54e2f801d3ea4beb0c5e71a21cc34a5d34b77d0fb8a3aa1650dc18f6004546040518082815260200191505060405180910390a150565b60036005811115610adc57fe5b600060149054906101000a900460ff166005811115610af757fe5b14610b4d576040517f08c379a000000000000000000000000000000000000000000000000000000000815260040180806020018281038252602c815260200180612435602c913960400191505060405180910390fd5b60011515600160003373ffffffffffffffffffffffffffffffffffffffff1673ffffffffffffffffffffffffffffffffffffffff16815260200190815260200160002060000160009054906101000a900460ff16151514610c16576040517f08c379a00000000000000000000000000000000000000000000000000000000081526004018080602001828103825260158152602001807f596f75277265206e6f742072656769737465726564000000000000000000000081525060200191505060405180910390fd5b60001515600160003373ffffffffffffffffffffffffffffffffffffffff1673ffffffffffffffffffffffffffffffffffffffff16815260200190815260200160002060000160019054906101000a900460ff16151514610cdf576040517f08c379a00000000000000000000000000000000000000000000000000000000081526004018080602001828103825260168152602001807f596f75206861766520616c726561647920766f7465640000000000000000000081525060200191505060405180910390fd5b60038160ff1681548110610cef57fe5b9060005260206000209060030201600201600081548092919060010191905055508060ff16600160003373ffffffffffffffffffffffffffffffffffffffff1673ffffffffffffffffffffffffffffffffffffffff1681526020019081526020016000206001018190555060018060003373ffffffffffffffffffffffffffffffffffffffff1673ffffffffffffffffffffffffffffffffffffffff16815260200190815260200160002060000160016101000a81548160ff0219169083151502179055507f4d99b957a2bc29a30ebd96a7be8e68fe50a3c701db28a91436490b7d53870ca43382604051808373ffffffffffffffffffffffffffffffffffffffff1681526020018260ff1681526020019250505060405180910390a150565b60606000600360055481548110610e2257fe5b906000526020600020906003020160010160405160200180807f5468652077696e6e6572206973203a200000000000000000000000000000000081525060100182805460018160011615610100020316600290048015610eb95780601f10610e97576101008083540402835291820191610eb9565b820191906000526020600020905b815481529060010190602001808311610ea5575b5050915050604051602081830303815290604052600360055481548110610edc57fe5b906000526020600020906003020160020154915091509091565b610efe612299565b73ffffffffffffffffffffffffffffffffffffffff1660008054906101000a900473ffffffffffffffffffffffffffffffffffffffff1673ffffffffffffffffffffffffffffffffffffffff1614610fbe576040517f08c379a00000000000000000000000000000000000000000000000000000000081526004018080602001828103825260208152602001807f4f776e61626c653a2063616c6c6572206973206e6f7420746865206f776e657281525060200191505060405180910390fd5b600073ffffffffffffffffffffffffffffffffffffffff1660008054906101000a900473ffffffffffffffffffffffffffffffffffffffff1673ffffffffffffffffffffffffffffffffffffffff167f8be0079c531659141344cd1fd0a4f28419497f9722a3daafe3b4186f6b6457e060405160405180910390a360008060006101000a81548173ffffffffffffffffffffffffffffffffffffffff021916908373ffffffffffffffffffffffffffffffffffffffff160217905550565b6000600380549050905090565b60008060009054906101000a900473ffffffffffffffffffffffffffffffffffffffff16905090565b60006110bc612299565b73ffffffffffffffffffffffffffffffffffffffff1660008054906101000a900473ffffffffffffffffffffffffffffffffffffffff1673ffffffffffffffffffffffffffffffffffffffff161461117c576040517f08c379a00000000000000000000000000000000000000000000000000000000081526004018080602001828103825260208152602001807f4f776e61626c653a2063616c6c6572206973206e6f7420746865206f776e657281525060200191505060405180910390fd5b6004600581111561118957fe5b600060149054906101000a900460ff1660058111156111a457fe5b146111fa576040517f08c379a00000000000000000000000000000000000000000000000000000000081526004018080602001828103825260398152602001806123656039913960400191505060405180910390fd5b600080600090505b60038054905081101561126b57816003828154811061121d57fe5b906000526020600020906003020160020154111561125e576003818154811061124257fe5b9060005260206000209060030201600201549150806005819055505b8080600101915050611202565b506005600060146101000a81548160ff0219169083600581111561128b57fe5b02179055507f0a97a4ee45751e2abf3e4fc8946939630b11b371ea8ae39ccdc3056e98f5cc3f60046005604051808360058111156112c557fe5b81526020018260058111156112d657fe5b81526020019250505060405180910390a17f0e5e95ff8725ab3e7a4b6b59998a4c344c2aa8d1485f5e60cb7f337768e6134760405160405180910390a15090565b6060600280548060200260200160405190810160405280929190818152602001828054801561139b57602002820191906000526020600020905b8160009054906101000a900473ffffffffffffffffffffffffffffffffffffffff1673ffffffffffffffffffffffffffffffffffffffff1681526020019060010190808311611351575b5050505050905090565b60016020528060005260406000206000915090508060000160009054906101000a900460ff16908060000160019054906101000a900460ff16908060010154905083565b60006113f3612299565b73ffffffffffffffffffffffffffffffffffffffff1660008054906101000a900473ffffffffffffffffffffffffffffffffffffffff1673ffffffffffffffffffffffffffffffffffffffff16146114b3576040517f08c379a00000000000000000000000000000000000000000000000000000000081526004018080602001828103825260208152602001807f4f776e61626c653a2063616c6c6572206973206e6f7420746865206f776e657281525060200191505060405180910390fd5b600160008373ffffffffffffffffffffffffffffffffffffffff1673ffffffffffffffffffffffffffffffffffffffff16815260200190815260200160002060000160009054906101000a900460ff169050919050565b611512612299565b73ffffffffffffffffffffffffffffffffffffffff1660008054906101000a900473ffffffffffffffffffffffffffffffffffffffff1673ffffffffffffffffffffffffffffffffffffffff16146115d2576040517f08c379a00000000000000000000000000000000000000000000000000000000081526004018080602001828103825260208152602001807f4f776e61626c653a2063616c6c6572206973206e6f7420746865206f776e657281525060200191505060405180910390fd5b600360058111156115df57fe5b600060149054906101000a900460ff1660058111156115fa57fe5b1461166d576040517f08c379a00000000000000000000000000000000000000000000000000000000081526004018080602001828103825260118152602001807f4e6f2073657373696f6e20746f20656e6400000000000000000000000000000081525060200191505060405180910390fd5b6004600060146101000a81548160ff0219169083600581111561168c57fe5b02179055507f0a97a4ee45751e2abf3e4fc8946939630b11b371ea8ae39ccdc3056e98f5cc3f60036004604051808360058111156116c657fe5b81526020018260058111156116d757fe5b81526020019250505060405180910390a17fc379d349a6301baf50fb2f98d829f4ae10b1cdb7c66f4e4d8117302df7b8cd4c60405160405180910390a1565b600060149054906101000a900460ff1681565b60055481565b611737612299565b73ffffffffffffffffffffffffffffffffffffffff1660008054906101000a900473ffffffffffffffffffffffffffffffffffffffff1673ffffffffffffffffffffffffffffffffffffffff16146117f7576040517f08c379a00000000000000000000000000000000000000000000000000000000081526004018080602001828103825260208152602001807f4f776e61626c653a2063616c6c6572206973206e6f7420746865206f776e657281525060200191505060405180910390fd5b6001600581111561180457fe5b600060149054906101000a900460ff16600581111561181f57fe5b14611892576040517f08c379a00000000000000000000000000000000000000000000000000000000081526004018080602001828103825260118152602001807f4e6f2073657373696f6e20746f20656e6400000000000000000000000000000081525060200191505060405180910390fd5b6002600060146101000a81548160ff021916908360058111156118b157fe5b02179055507f0a97a4ee45751e2abf3e4fc8946939630b11b371ea8ae39ccdc3056e98f5cc3f60016002604051808360058111156118eb57fe5b81526020018260058111156118fc57fe5b81526020019250505060405180910390a17f240cb87b2e4df4c318e72bd714d45a9cad60249e883ff56b1fffd83a4595a8fa60405160405180910390a1565b611943612299565b73ffffffffffffffffffffffffffffffffffffffff1660008054906101000a900473ffffffffffffffffffffffffffffffffffffffff1673ffffffffffffffffffffffffffffffffffffffff1614611a03576040517f08c379a00000000000000000000000000000000000000000000000000000000081526004018080602001828103825260208152602001807f4f776e61626c653a2063616c6c6572206973206e6f7420746865206f776e657281525060200191505060405180910390fd5b60006005811115611a1057fe5b600060149054906101000a900460ff166005811115611a2b57fe5b14611a9e576040517f08c379a00000000000000000000000000000000000000000000000000000000081526004018080602001828103825260208152602001807f412073657373696f6e20697320616c726561647920696e2070726f677265737381525060200191505060405180910390fd5b6001600060146101000a81548160ff02191690836005811115611abd57fe5b02179055507f0a97a4ee45751e2abf3e4fc8946939630b11b371ea8ae39ccdc3056e98f5cc3f6000600160405180836005811115611af757fe5b8152602001826005811115611b0857fe5b81526020019250505060405180910390a17f344c25562921d075a298d34b6dd1fd00d36ff293974539dfd4a8c625d9f0064c60405160405180910390a1565b60028181548110611b5457fe5b906000526020600020016000915054906101000a900473ffffffffffffffffffffffffffffffffffffffff1681565b611b8b612299565b73ffffffffffffffffffffffffffffffffffffffff1660008054906101000a900473ffffffffffffffffffffffffffffffffffffffff1673ffffffffffffffffffffffffffffffffffffffff1614611c4b576040517f08c379a00000000000000000000000000000000000000000000000000000000081526004018080602001828103825260208152602001807f4f776e61626c653a2063616c6c6572206973206e6f7420746865206f776e657281525060200191505060405180910390fd5b60026005811115611c5857fe5b600060149054906101000a900460ff166005811115611c7357fe5b14611cc9576040517f08c379a00000000000000000000000000000000000000000000000000000000081526004018080602001828103825260348152602001806124016034913960400191505060405180910390fd5b6003600060146101000a81548160ff02191690836005811115611ce857fe5b02179055507f0a97a4ee45751e2abf3e4fc8946939630b11b371ea8ae39ccdc3056e98f5cc3f6002600360405180836005811115611d2257fe5b8152602001826005811115611d3357fe5b81526020019250505060405180910390a17f240cb87b2e4df4c318e72bd714d45a9cad60249e883ff56b1fffd83a4595a8fa60405160405180910390a1565b611d7a612299565b73ffffffffffffffffffffffffffffffffffffffff1660008054906101000a900473ffffffffffffffffffffffffffffffffffffffff1673ffffffffffffffffffffffffffffffffffffffff1614611e3a576040517f08c379a00000000000000000000000000000000000000000000000000000000081526004018080602001828103825260208152602001807f4f776e61626c653a2063616c6c6572206973206e6f7420746865206f776e657281525060200191505060405180910390fd5b600073ffffffffffffffffffffffffffffffffffffffff168173ffffffffffffffffffffffffffffffffffffffff161415611ec0576040517f08c379a000000000000000000000000000000000000000000000000000000000815260040180806020018281038252602681526020018061233f6026913960400191505060405180910390fd5b8073ffffffffffffffffffffffffffffffffffffffff1660008054906101000a900473ffffffffffffffffffffffffffffffffffffffff1673ffffffffffffffffffffffffffffffffffffffff167f8be0079c531659141344cd1fd0a4f28419497f9722a3daafe3b4186f6b6457e060405160405180910390a3806000806101000a81548173ffffffffffffffffffffffffffffffffffffffff021916908373ffffffffffffffffffffffffffffffffffffffff16021790555050565b611f85612299565b73ffffffffffffffffffffffffffffffffffffffff1660008054906101000a900473ffffffffffffffffffffffffffffffffffffffff1673ffffffffffffffffffffffffffffffffffffffff1614612045576040517f08c379a00000000000000000000000000000000000000000000000000000000081526004018080602001828103825260208152602001807f4f776e61626c653a2063616c6c6572206973206e6f7420746865206f776e657281525060200191505060405180910390fd5b60001515600160008373ffffffffffffffffffffffffffffffffffffffff1673ffffffffffffffffffffffffffffffffffffffff16815260200190815260200160002060000160009054906101000a900460ff161515146120f1576040517f08c379a000000000000000000000000000000000000000000000000000000000815260040180806020018281038252602281526020018061239e6022913960400191505060405180910390fd5b600060058111156120fe57fe5b600060149054906101000a900460ff16600581111561211957fe5b1461218c576040517f08c379a000000000000000000000000000000000000000000000000000000000815260040180806020018281038252601e8152602001807f546865207265676973746572696e6720706572696f64206973206f766572000081525060200191505060405180910390fd5b60018060008373ffffffffffffffffffffffffffffffffffffffff1673ffffffffffffffffffffffffffffffffffffffff16815260200190815260200160002060000160006101000a81548160ff0219169083151502179055506002819080600181540180825580915050600190039060005260206000200160009091909190916101000a81548173ffffffffffffffffffffffffffffffffffffffff021916908373ffffffffffffffffffffffffffffffffffffffff1602179055507fb6be2187d059cc2a55fe29e0e503b566e1e0f8c8780096e185429350acffd3dd81604051808273ffffffffffffffffffffffffffffffffffffffff16815260200191505060405180910390a150565b600033905090565b828054600181600116156101000203166002900490600052602060002090601f016020900481019282601f106122e257805160ff1916838001178555612310565b82800160010185558215612310579182015b8281111561230f5782518255916020019190600101906122f4565b5b50905061231d9190612321565b5090565b5b8082111561233a576000816000905550600101612322565b509056fe4f776e61626c653a206e6577206f776e657220697320746865207a65726f2061646472657373506c6561736520656e6420766f74696e672073657373696f6e206265666f726520676574207468652077696e6e696e672070726f706f73616c54686973206164647265737320697320616c726561647920726567697374657265645468652070726f706f73616c20726567697374726174696f6e20706572696f642068617320656e646564206f7220686173206e6f742079657420737461727465644120766f74696e67206f722070726f706f73616c2073657373696f6e20697320616c726561647920696e2070726f677265737320566f746520706572696f642068617320656e646564206f7220686173206e6f74207965742073746172746564a26469706673582212205e43fbb055ebf7a26b0d5b98f8738a1019a60bf46b6ad2c1d3b1e4f8d5303dce64736f6c634300060c0033",
  "immutableReferences": {},
  "source": "// SPDX-License-Identifier: MIT\npragma solidity ^0.6.11;\n// pragma experimental ABIEncoderV2;\n\nimport \"@openzeppelin/contracts/access/Ownable.sol\";\n\ncontract Voting is Ownable {\n\tenum WorkflowStatus {\n\t\tRegisteringVoters,\n\t\tProposalsRegistrationStarted,\n\t\tProposalsRegistrationEnded,\n\t\tVotingSessionStarted,\n\t\tVotingSessionEnded,\n\t\tVotesTallied\n\t}\n\n\tstruct Voter {\n\t\tbool isRegistered;\n\t\tbool hasVoted;\n\t\tuint256 votedProposalId;\n\t}\n\n\tstruct Proposal {\n\t\tuint256 id;\n\t\tstring description;\n\t\tuint256 voteCount;\n\t}\n\n\tWorkflowStatus public currState;\n\tmapping(address => Voter) public voters;\n\taddress[] public addresses;\n\tProposal[] public proposals;\n\tuint256 public proposalId;\n\tuint256 public winningProposalId;\n\n\tevent VoterRegistered(address voterAddress);\n\tevent ProposalsRegistrationStarted();\n\tevent ProposalsRegistrationEnded();\n\tevent ProposalRegistered(uint256 proposalId);\n\tevent VotingSessionStarted();\n\tevent VotingSessionEnded();\n\tevent Voted(address voter, uint256 proposalId);\n\tevent VotesTallied();\n\tevent WorkflowStatusChange(\n\t\t\tWorkflowStatus previousStatus,\n\t\t\tWorkflowStatus newStatus\n\t);\n\n\tfunction addVoter(address _address) external onlyOwner {\n\t\trequire(\n\t\t\tvoters[_address].isRegistered == false,\n\t\t\t\"This address is already registered\"\n\t\t);\n\t\trequire(\n\t\t\tcurrState == WorkflowStatus.RegisteringVoters,\n\t\t\t\"The registering period is over\"\n\t\t);\n\t\tvoters[_address].isRegistered = true;\n\t\taddresses.push(_address);\n\t\temit VoterRegistered(_address);\n\t}\n\n\tfunction isVoter(address _address) public view onlyOwner returns (bool) {\n\t\treturn voters[_address].isRegistered;\n\t}\n\n\tfunction startProposalsSession() external onlyOwner {\n\t\trequire(\n\t\t\tcurrState == WorkflowStatus.RegisteringVoters,\n\t\t\t\"A session is already in progress\"\n\t\t);\n\t\tcurrState = WorkflowStatus.ProposalsRegistrationStarted;\n\t\temit WorkflowStatusChange(\n\t\t\tWorkflowStatus.RegisteringVoters,\n\t\t\tWorkflowStatus.ProposalsRegistrationStarted\n\t\t);\n\t\temit ProposalsRegistrationStarted();\n\t}\n\n\tfunction addProposal(string memory _description) external {\n\t\trequire(\n\t\t\tcurrState == WorkflowStatus.ProposalsRegistrationStarted,\n\t\t\t\"The proposal registration period has ended or has not yet started\"\n\t\t);\n\t\trequire(\n\t\t\tvoters[msg.sender].isRegistered == true,\n\t\t\t\"You're not registered\"\n\t\t);\n\t\tproposals.push(\n\t\t\tProposal({id: proposalId, description: _description, voteCount: 0})\n\t\t);\n\t\tproposalId++;\n\t\temit ProposalRegistered(proposalId);\n\t}\n\n\tfunction endProposalSession() external onlyOwner {\n\t\t\trequire(\n\t\t\t\tcurrState == WorkflowStatus.ProposalsRegistrationStarted,\n\t\t\t\t\"No session to end\"\n\t\t\t);\n\t\t\tcurrState = WorkflowStatus.ProposalsRegistrationEnded;\n\t\t\temit WorkflowStatusChange(\n\t\t\t\tWorkflowStatus.ProposalsRegistrationStarted,\n\t\t\t\tWorkflowStatus.ProposalsRegistrationEnded\n\t\t\t);\n\t\t\temit ProposalsRegistrationEnded();\n\t}\n\n\tfunction startVotingSession() external onlyOwner {\n\t\t\trequire(\n\t\t\t\tcurrState == WorkflowStatus.ProposalsRegistrationEnded,\n\t\t\t\t\"A voting or proposal session is already in progress \"\n\t\t\t);\n\t\t\tcurrState = WorkflowStatus.VotingSessionStarted;\n\t\t\temit WorkflowStatusChange(\n\t\t\t\tWorkflowStatus.ProposalsRegistrationEnded,\n\t\t\t\tWorkflowStatus.VotingSessionStarted\n\t\t\t);\n\t\t\temit ProposalsRegistrationEnded();\n\t}\n\n\tfunction addVote(uint8 _proposalId) external {\n\t\trequire(\n\t\t\tcurrState == WorkflowStatus.VotingSessionStarted,\n\t\t\t\"Vote period has ended or has not yet started\"\n\t\t);\n\t\trequire(\n\t\t\tvoters[msg.sender].isRegistered == true,\n\t\t\t\"You're not registered\"\n\t\t);\n\t\trequire(voters[msg.sender].hasVoted == false, \"You have already voted\");\n\t\tproposals[_proposalId].voteCount++;\n\t\tvoters[msg.sender].votedProposalId = _proposalId;\n\t\tvoters[msg.sender].hasVoted = true;\n\t\temit Voted(msg.sender, _proposalId);\n\t}\n\n\tfunction endVotingSession() external onlyOwner {\n\t\trequire(\n\t\t\tcurrState == WorkflowStatus.VotingSessionStarted,\n\t\t\t\"No session to end\"\n\t\t);\n\t\tcurrState = WorkflowStatus.VotingSessionEnded;\n\t\temit WorkflowStatusChange(\n\t\t\tWorkflowStatus.VotingSessionStarted,\n\t\t\tWorkflowStatus.VotingSessionEnded\n\t\t);\n\t\temit VotingSessionEnded();\n\t}\n\n\tfunction getTheWinningProposal() external onlyOwner returns (uint256) {\n\t\trequire(\n\t\t\tcurrState == WorkflowStatus.VotingSessionEnded,\n\t\t\t\"Please end voting session before get the winning proposal\"\n\t\t);\n\t\tuint256 winningVoteCount;\n\t\tfor (uint256 id = 0; id < proposals.length; id++) {\n\t\t\tif (proposals[id].voteCount > winningVoteCount) {\n\t\t\t\twinningVoteCount = proposals[id].voteCount;\n\t\t\t\twinningProposalId = id;\n\t\t\t}\n\t\t}\n\t\tcurrState = WorkflowStatus.VotesTallied;\n\t\temit WorkflowStatusChange(\n\t\t\tWorkflowStatus.VotingSessionEnded,\n\t\t\tWorkflowStatus.VotesTallied\n\t\t);\n\t\temit VotesTallied();\n\t}\n\n\tfunction showWinnerProposal()\n\t\texternal\n\t\tview\n\t\treturns (string memory, uint256)\n\t{\n\t\treturn (\n\t\t\tstring(\n\t\t\t\tabi.encodePacked(\n\t\t\t\t\t\"The winner is : \",\n\t\t\t\t\tproposals[winningProposalId].description\n\t\t\t\t)\n\t\t\t),\n\t\t\tproposals[winningProposalId].voteCount\n\t\t);\n\t}\n\n\tfunction getAddresses() public view returns (address[] memory) {\n\t\treturn addresses;\n\t}\n\n\tfunction getProposalLength() public view returns (uint256) {\n\t\treturn proposals.length;\n\t}\n\n\tfunction getProposalById(uint8 id) public view returns (string memory) {\n\t\treturn proposals[id].description;\n\t}\n}\n",
  "sourcePath": "/mnt/c/Users/damie/Documents/drizzle-voting/contracts/Voting.sol",
  "compiler": {
    "name": "solc",
    "version": "0.6.12+commit.27d51765.Emscripten.clang"
  },
  "schemaVersion": "3.3.2",
  "updatedAt": "2020-12-04T00:21:23.668Z",
  "networkType": "ethereum",
  "devdoc": {
    "kind": "dev",
    "methods": {
      "owner()": {
        "details": "Returns the address of the current owner."
      },
      "renounceOwnership()": {
        "details": "Leaves the contract without owner. It will not be possible to call `onlyOwner` functions anymore. Can only be called by the current owner. NOTE: Renouncing ownership will leave the contract without an owner, thereby removing any functionality that is only available to the owner."
      },
      "transferOwnership(address)": {
        "details": "Transfers ownership of the contract to a new account (`newOwner`). Can only be called by the current owner."
      }
    },
    "version": 1
  },
  "userdoc": {
    "kind": "user",
    "methods": {},
    "version": 1
  }
}