{
  "contractName": "Voting",
  "abi": [
    {
      "anonymous": false,
      "inputs": [
        {
          "indexed": true,
          "internalType": "address",
          "name": "previousOwner",
          "type": "address"
        },
        {
          "indexed": true,
          "internalType": "address",
          "name": "newOwner",
          "type": "address"
        }
      ],
      "name": "OwnershipTransferred",
      "type": "event"
    },
    {
      "anonymous": false,
      "inputs": [
        {
          "indexed": false,
          "internalType": "uint256",
          "name": "proposalId",
          "type": "uint256"
        }
      ],
      "name": "ProposalRegistered",
      "type": "event"
    },
    {
      "anonymous": false,
      "inputs": [],
      "name": "ProposalsRegistrationEnded",
      "type": "event"
    },
    {
      "anonymous": false,
      "inputs": [],
      "name": "ProposalsRegistrationStarted",
      "type": "event"
    },
    {
      "anonymous": false,
      "inputs": [
        {
          "indexed": false,
          "internalType": "address",
          "name": "voter",
          "type": "address"
        },
        {
          "indexed": false,
          "internalType": "uint256",
          "name": "proposalId",
          "type": "uint256"
        }
      ],
      "name": "Voted",
      "type": "event"
    },
    {
      "anonymous": false,
      "inputs": [
        {
          "indexed": false,
          "internalType": "address",
          "name": "voterAddress",
          "type": "address"
        }
      ],
      "name": "VoterRegistered",
      "type": "event"
    },
    {
      "anonymous": false,
      "inputs": [],
      "name": "VotesTallied",
      "type": "event"
    },
    {
      "anonymous": false,
      "inputs": [],
      "name": "VotingSessionEnded",
      "type": "event"
    },
    {
      "anonymous": false,
      "inputs": [],
      "name": "VotingSessionStarted",
      "type": "event"
    },
    {
      "anonymous": false,
      "inputs": [
        {
          "indexed": false,
          "internalType": "enum Voting.WorkflowStatus",
          "name": "previousStatus",
          "type": "uint8"
        },
        {
          "indexed": false,
          "internalType": "enum Voting.WorkflowStatus",
          "name": "newStatus",
          "type": "uint8"
        }
      ],
      "name": "WorkflowStatusChange",
      "type": "event"
    },
    {
      "inputs": [
        {
          "internalType": "uint256",
          "name": "",
          "type": "uint256"
        }
      ],
      "name": "addresses",
      "outputs": [
        {
          "internalType": "address",
          "name": "",
          "type": "address"
        }
      ],
      "stateMutability": "view",
      "type": "function",
      "constant": true
    },
    {
      "inputs": [],
      "name": "currState",
      "outputs": [
        {
          "internalType": "enum Voting.WorkflowStatus",
          "name": "",
          "type": "uint8"
        }
      ],
      "stateMutability": "view",
      "type": "function",
      "constant": true
    },
    {
      "inputs": [],
      "name": "owner",
      "outputs": [
        {
          "internalType": "address",
          "name": "",
          "type": "address"
        }
      ],
      "stateMutability": "view",
      "type": "function",
      "constant": true
    },
    {
      "inputs": [],
      "name": "proposalId",
      "outputs": [
        {
          "internalType": "uint256",
          "name": "",
          "type": "uint256"
        }
      ],
      "stateMutability": "view",
      "type": "function",
      "constant": true
    },
    {
      "inputs": [
        {
          "internalType": "uint256",
          "name": "",
          "type": "uint256"
        }
      ],
      "name": "proposals",
      "outputs": [
        {
          "internalType": "uint256",
          "name": "id",
          "type": "uint256"
        },
        {
          "internalType": "string",
          "name": "description",
          "type": "string"
        },
        {
          "internalType": "uint256",
          "name": "voteCount",
          "type": "uint256"
        }
      ],
      "stateMutability": "view",
      "type": "function",
      "constant": true
    },
    {
      "inputs": [],
      "name": "renounceOwnership",
      "outputs": [],
      "stateMutability": "nonpayable",
      "type": "function"
    },
    {
      "inputs": [
        {
          "internalType": "address",
          "name": "newOwner",
          "type": "address"
        }
      ],
      "name": "transferOwnership",
      "outputs": [],
      "stateMutability": "nonpayable",
      "type": "function"
    },
    {
      "inputs": [
        {
          "internalType": "address",
          "name": "",
          "type": "address"
        }
      ],
      "name": "voters",
      "outputs": [
        {
          "internalType": "bool",
          "name": "isRegistered",
          "type": "bool"
        },
        {
          "internalType": "bool",
          "name": "hasVoted",
          "type": "bool"
        },
        {
          "internalType": "uint256",
          "name": "votedProposalId",
          "type": "uint256"
        }
      ],
      "stateMutability": "view",
      "type": "function",
      "constant": true
    },
    {
      "inputs": [],
      "name": "winningProposalId",
      "outputs": [
        {
          "internalType": "uint256",
          "name": "",
          "type": "uint256"
        }
      ],
      "stateMutability": "view",
      "type": "function",
      "constant": true
    },
    {
      "inputs": [
        {
          "internalType": "address",
          "name": "_address",
          "type": "address"
        }
      ],
      "name": "addVoter",
      "outputs": [],
      "stateMutability": "nonpayable",
      "type": "function"
    },
    {
      "inputs": [
        {
          "internalType": "address",
          "name": "_address",
          "type": "address"
        }
      ],
      "name": "isVoter",
      "outputs": [
        {
          "internalType": "bool",
          "name": "",
          "type": "bool"
        }
      ],
      "stateMutability": "view",
      "type": "function",
      "constant": true
    },
    {
      "inputs": [],
      "name": "startProposalsSession",
      "outputs": [],
      "stateMutability": "nonpayable",
      "type": "function"
    },
    {
      "inputs": [
        {
          "internalType": "string",
          "name": "_description",
          "type": "string"
        }
      ],
      "name": "addProposal",
      "outputs": [],
      "stateMutability": "nonpayable",
      "type": "function"
    },
    {
      "inputs": [],
      "name": "endProposalSession",
      "outputs": [],
      "stateMutability": "nonpayable",
      "type": "function"
    },
    {
      "inputs": [],
      "name": "startVotingSession",
      "outputs": [],
      "stateMutability": "nonpayable",
      "type": "function"
    },
    {
      "inputs": [
        {
          "internalType": "uint8",
          "name": "_proposalId",
          "type": "uint8"
        }
      ],
      "name": "addVote",
      "outputs": [],
      "stateMutability": "nonpayable",
      "type": "function"
    },
    {
      "inputs": [],
      "name": "endVotingSession",
      "outputs": [],
      "stateMutability": "nonpayable",
      "type": "function"
    },
    {
      "inputs": [],
      "name": "getTheWinningProposal",
      "outputs": [
        {
          "internalType": "uint256",
          "name": "",
          "type": "uint256"
        }
      ],
      "stateMutability": "nonpayable",
      "type": "function"
    },
    {
      "inputs": [],
      "name": "showWinnerProposal",
      "outputs": [
        {
          "internalType": "string",
          "name": "",
          "type": "string"
        },
        {
          "internalType": "uint256",
          "name": "",
          "type": "uint256"
        }
      ],
      "stateMutability": "view",
      "type": "function",
      "constant": true
    },
    {
      "inputs": [],
      "name": "getAddresses",
      "outputs": [
        {
          "internalType": "address[]",
          "name": "",
          "type": "address[]"
        }
      ],
      "stateMutability": "view",
      "type": "function",
      "constant": true
    },
    {
      "inputs": [],
      "name": "getProposalLength",
      "outputs": [
        {
          "internalType": "uint256",
          "name": "",
          "type": "uint256"
        }
      ],
      "stateMutability": "view",
      "type": "function",
      "constant": true
    },
    {
      "inputs": [
        {
          "internalType": "uint8",
          "name": "id",
          "type": "uint8"
        }
      ],
      "name": "getProposalById",
      "outputs": [
        {
          "internalType": "string",
          "name": "",
          "type": "string"
        }
      ],
      "stateMutability": "view",
      "type": "function",
      "constant": true
    },
    {
      "inputs": [],
      "name": "getProposals",
      "outputs": [
        {
          "components": [
            {
              "internalType": "uint256",
              "name": "id",
              "type": "uint256"
            },
            {
              "internalType": "string",
              "name": "description",
              "type": "string"
            },
            {
              "internalType": "uint256",
              "name": "voteCount",
              "type": "uint256"
            }
          ],
          "internalType": "struct Voting.Proposal[]",
          "name": "",
          "type": "tuple[]"
        }
      ],
      "stateMutability": "view",
      "type": "function",
      "constant": true
    }
  ],
  "bytecode": "0x608060405234801561001057600080fd5b5060006100216100c460201b60201c565b9050806000806101000a81548173ffffffffffffffffffffffffffffffffffffffff021916908373ffffffffffffffffffffffffffffffffffffffff1602179055508073ffffffffffffffffffffffffffffffffffffffff16600073ffffffffffffffffffffffffffffffffffffffff167f8be0079c531659141344cd1fd0a4f28419497f9722a3daafe3b4186f6b6457e060405160405180910390a3506100cc565b600033905090565b612ab4806100db6000396000f3fe608060405234801561001057600080fd5b506004361061014d5760003560e01c8063a39fac12116100c3578063e06752c21161007c578063e06752c214610371578063e47caad31461037b578063edf26d9b14610385578063ee74c678146103b5578063f2fde38b146103bf578063f4ab9adf146103db5761014d565b8063a39fac12146102ab578063a3ec138d146102c9578063a7771ee3146102fb578063a7bfab161461032b578063afe0104314610335578063c64963c5146103535761014d565b80635e5c27ee116101155780635e5c27ee1461020a57806362564c4814610229578063715018a6146102475780638263a938146102515780638da5cb5b1461026f57806391f74e371461028d5761014d565b8063013cf08b1461015257806309406598146101845780632dfca445146101b45780632fdae3c5146101d25780635d814eab146101ee575b600080fd5b61016c60048036038101906101679190611d31565b6103f7565b60405161017b939291906127c1565b60405180910390f35b61019e60048036038101906101999190611d5a565b6104c6565b6040516101ab91906125d4565b60405180910390f35b6101bc610589565b6040516101c991906127a6565b60405180910390f35b6101ec60048036038101906101e79190611cf0565b61058f565b005b61020860048036038101906102039190611d5a565b610757565b005b6102126109fc565b6040516102209291906125f6565b60405180910390f35b610231610a68565b60405161023e919061251c565b60405180910390f35b61024f610b7d565b005b610259610cd0565b60405161026691906127a6565b60405180910390f35b610277610cdd565b60405161028491906124b6565b60405180910390f35b610295610d06565b6040516102a291906127a6565b60405180910390f35b6102b3610f06565b6040516102c091906124fa565b60405180910390f35b6102e360048036038101906102de9190611cc7565b610f94565b6040516102f293929190612559565b60405180910390f35b61031560048036038101906103109190611cc7565b610fd8565b604051610322919061253e565b60405180910390f35b6103336110c6565b005b61033d611250565b60405161034a9190612590565b60405180910390f35b61035b611263565b60405161036891906127a6565b60405180910390f35b610379611269565b005b6103836113f3565b005b61039f600480360381019061039a9190611d31565b61157d565b6040516103ac91906124b6565b60405180910390f35b6103bd6115b9565b005b6103d960048036038101906103d49190611cc7565b611743565b005b6103f560048036038101906103f09190611cc7565b611905565b005b6003818154811061040457fe5b9060005260206000209060030201600091509050806000015490806001018054600181600116156101000203166002900480601f0160208091040260200160405190810160405280929190818152602001828054600181600116156101000203166002900480156104b65780601f1061048b576101008083540402835291602001916104b6565b820191906000526020600020905b81548152906001019060200180831161049957829003601f168201915b5050505050908060020154905083565b606060038260ff16815481106104d857fe5b90600052602060002090600302016001018054600181600116156101000203166002900480601f01602080910402602001604051908101604052809291908181526020018280546001816001161561010002031660029004801561057d5780601f106105525761010080835404028352916020019161057d565b820191906000526020600020905b81548152906001019060200180831161056057829003601f168201915b50505050509050919050565b60045481565b6001600581111561059c57fe5b600060149054906101000a900460ff1660058111156105b757fe5b146105f7576040517f08c379a00000000000000000000000000000000000000000000000000000000081526004016105ee90612686565b60405180910390fd5b60011515600160003373ffffffffffffffffffffffffffffffffffffffff1673ffffffffffffffffffffffffffffffffffffffff16815260200190815260200160002060000160009054906101000a900460ff1615151461068d576040517f08c379a000000000000000000000000000000000000000000000000000000000815260040161068490612766565b60405180910390fd5b600360405180606001604052806004548152602001838152602001600081525090806001815401808255809150506001900390600052602060002090600302016000909190919091506000820151816000015560208201518160010190805190602001906106fc929190611b97565b506040820151816002015550506004600081548092919060010191905055507f92e393e9b54e2f801d3ea4beb0c5e71a21cc34a5d34b77d0fb8a3aa1650dc18f60045460405161074c91906127a6565b60405180910390a150565b6003600581111561076457fe5b600060149054906101000a900460ff16600581111561077f57fe5b146107bf576040517f08c379a00000000000000000000000000000000000000000000000000000000081526004016107b690612726565b60405180910390fd5b60011515600160003373ffffffffffffffffffffffffffffffffffffffff1673ffffffffffffffffffffffffffffffffffffffff16815260200190815260200160002060000160009054906101000a900460ff16151514610855576040517f08c379a000000000000000000000000000000000000000000000000000000000815260040161084c90612766565b60405180910390fd5b60001515600160003373ffffffffffffffffffffffffffffffffffffffff1673ffffffffffffffffffffffffffffffffffffffff16815260200190815260200160002060000160019054906101000a900460ff161515146108eb576040517f08c379a00000000000000000000000000000000000000000000000000000000081526004016108e290612786565b60405180910390fd5b60038160ff16815481106108fb57fe5b9060005260206000209060030201600201600081548092919060010191905055508060ff16600160003373ffffffffffffffffffffffffffffffffffffffff1673ffffffffffffffffffffffffffffffffffffffff1681526020019081526020016000206001018190555060018060003373ffffffffffffffffffffffffffffffffffffffff1673ffffffffffffffffffffffffffffffffffffffff16815260200190815260200160002060000160016101000a81548160ff0219169083151502179055507f4d99b957a2bc29a30ebd96a7be8e68fe50a3c701db28a91436490b7d53870ca433826040516109f19291906124d1565b60405180910390a150565b60606000600360055481548110610a0f57fe5b9060005260206000209060030201600101604051602001610a309190612494565b604051602081830303815290604052600360055481548110610a4e57fe5b906000526020600020906003020160020154915091509091565b60606003805480602002602001604051908101604052809291908181526020016000905b82821015610b74578382906000526020600020906003020160405180606001604052908160008201548152602001600182018054600181600116156101000203166002900480601f016020809104026020016040519081016040528092919081815260200182805460018160011615610100020316600290048015610b525780601f10610b2757610100808354040283529160200191610b52565b820191906000526020600020905b815481529060010190602001808311610b3557829003601f168201915b5050505050815260200160028201548152505081526020019060010190610a8c565b50505050905090565b610b85611b8f565b73ffffffffffffffffffffffffffffffffffffffff1660008054906101000a900473ffffffffffffffffffffffffffffffffffffffff1673ffffffffffffffffffffffffffffffffffffffff1614610c12576040517f08c379a0000000000000000000000000000000000000000000000000000000008152600401610c09906126e6565b60405180910390fd5b600073ffffffffffffffffffffffffffffffffffffffff1660008054906101000a900473ffffffffffffffffffffffffffffffffffffffff1673ffffffffffffffffffffffffffffffffffffffff167f8be0079c531659141344cd1fd0a4f28419497f9722a3daafe3b4186f6b6457e060405160405180910390a360008060006101000a81548173ffffffffffffffffffffffffffffffffffffffff021916908373ffffffffffffffffffffffffffffffffffffffff160217905550565b6000600380549050905090565b60008060009054906101000a900473ffffffffffffffffffffffffffffffffffffffff16905090565b6000610d10611b8f565b73ffffffffffffffffffffffffffffffffffffffff1660008054906101000a900473ffffffffffffffffffffffffffffffffffffffff1673ffffffffffffffffffffffffffffffffffffffff1614610d9d576040517f08c379a0000000000000000000000000000000000000000000000000000000008152600401610d94906126e6565b60405180910390fd5b60046005811115610daa57fe5b600060149054906101000a900460ff166005811115610dc557fe5b14610e05576040517f08c379a0000000000000000000000000000000000000000000000000000000008152600401610dfc90612646565b60405180910390fd5b600080600090505b600380549050811015610e76578160038281548110610e2857fe5b9060005260206000209060030201600201541115610e695760038181548110610e4d57fe5b9060005260206000209060030201600201549150806005819055505b8080600101915050610e0d565b506005600060146101000a81548160ff02191690836005811115610e9657fe5b02179055507f0a97a4ee45751e2abf3e4fc8946939630b11b371ea8ae39ccdc3056e98f5cc3f60046005604051610ece9291906125ab565b60405180910390a17f0e5e95ff8725ab3e7a4b6b59998a4c344c2aa8d1485f5e60cb7f337768e6134760405160405180910390a15090565b60606002805480602002602001604051908101604052809291908181526020018280548015610f8a57602002820191906000526020600020905b8160009054906101000a900473ffffffffffffffffffffffffffffffffffffffff1673ffffffffffffffffffffffffffffffffffffffff1681526020019060010190808311610f40575b5050505050905090565b60016020528060005260406000206000915090508060000160009054906101000a900460ff16908060000160019054906101000a900460ff16908060010154905083565b6000610fe2611b8f565b73ffffffffffffffffffffffffffffffffffffffff1660008054906101000a900473ffffffffffffffffffffffffffffffffffffffff1673ffffffffffffffffffffffffffffffffffffffff161461106f576040517f08c379a0000000000000000000000000000000000000000000000000000000008152600401611066906126e6565b60405180910390fd5b600160008373ffffffffffffffffffffffffffffffffffffffff1673ffffffffffffffffffffffffffffffffffffffff16815260200190815260200160002060000160009054906101000a900460ff169050919050565b6110ce611b8f565b73ffffffffffffffffffffffffffffffffffffffff1660008054906101000a900473ffffffffffffffffffffffffffffffffffffffff1673ffffffffffffffffffffffffffffffffffffffff161461115b576040517f08c379a0000000000000000000000000000000000000000000000000000000008152600401611152906126e6565b60405180910390fd5b6003600581111561116857fe5b600060149054906101000a900460ff16600581111561118357fe5b146111c3576040517f08c379a00000000000000000000000000000000000000000000000000000000081526004016111ba906126c6565b60405180910390fd5b6004600060146101000a81548160ff021916908360058111156111e257fe5b02179055507f0a97a4ee45751e2abf3e4fc8946939630b11b371ea8ae39ccdc3056e98f5cc3f6003600460405161121a9291906125ab565b60405180910390a17fc379d349a6301baf50fb2f98d829f4ae10b1cdb7c66f4e4d8117302df7b8cd4c60405160405180910390a1565b600060149054906101000a900460ff1681565b60055481565b611271611b8f565b73ffffffffffffffffffffffffffffffffffffffff1660008054906101000a900473ffffffffffffffffffffffffffffffffffffffff1673ffffffffffffffffffffffffffffffffffffffff16146112fe576040517f08c379a00000000000000000000000000000000000000000000000000000000081526004016112f5906126e6565b60405180910390fd5b6001600581111561130b57fe5b600060149054906101000a900460ff16600581111561132657fe5b14611366576040517f08c379a000000000000000000000000000000000000000000000000000000000815260040161135d906126c6565b60405180910390fd5b6002600060146101000a81548160ff0219169083600581111561138557fe5b02179055507f0a97a4ee45751e2abf3e4fc8946939630b11b371ea8ae39ccdc3056e98f5cc3f600160026040516113bd9291906125ab565b60405180910390a17f240cb87b2e4df4c318e72bd714d45a9cad60249e883ff56b1fffd83a4595a8fa60405160405180910390a1565b6113fb611b8f565b73ffffffffffffffffffffffffffffffffffffffff1660008054906101000a900473ffffffffffffffffffffffffffffffffffffffff1673ffffffffffffffffffffffffffffffffffffffff1614611488576040517f08c379a000000000000000000000000000000000000000000000000000000000815260040161147f906126e6565b60405180910390fd5b6000600581111561149557fe5b600060149054906101000a900460ff1660058111156114b057fe5b146114f0576040517f08c379a00000000000000000000000000000000000000000000000000000000081526004016114e790612746565b60405180910390fd5b6001600060146101000a81548160ff0219169083600581111561150f57fe5b02179055507f0a97a4ee45751e2abf3e4fc8946939630b11b371ea8ae39ccdc3056e98f5cc3f600060016040516115479291906125ab565b60405180910390a17f344c25562921d075a298d34b6dd1fd00d36ff293974539dfd4a8c625d9f0064c60405160405180910390a1565b6002818154811061158a57fe5b906000526020600020016000915054906101000a900473ffffffffffffffffffffffffffffffffffffffff1681565b6115c1611b8f565b73ffffffffffffffffffffffffffffffffffffffff1660008054906101000a900473ffffffffffffffffffffffffffffffffffffffff1673ffffffffffffffffffffffffffffffffffffffff161461164e576040517f08c379a0000000000000000000000000000000000000000000000000000000008152600401611645906126e6565b60405180910390fd5b6002600581111561165b57fe5b600060149054906101000a900460ff16600581111561167657fe5b146116b6576040517f08c379a00000000000000000000000000000000000000000000000000000000081526004016116ad90612706565b60405180910390fd5b6003600060146101000a81548160ff021916908360058111156116d557fe5b02179055507f0a97a4ee45751e2abf3e4fc8946939630b11b371ea8ae39ccdc3056e98f5cc3f6002600360405161170d9291906125ab565b60405180910390a17f240cb87b2e4df4c318e72bd714d45a9cad60249e883ff56b1fffd83a4595a8fa60405160405180910390a1565b61174b611b8f565b73ffffffffffffffffffffffffffffffffffffffff1660008054906101000a900473ffffffffffffffffffffffffffffffffffffffff1673ffffffffffffffffffffffffffffffffffffffff16146117d8576040517f08c379a00000000000000000000000000000000000000000000000000000000081526004016117cf906126e6565b60405180910390fd5b600073ffffffffffffffffffffffffffffffffffffffff168173ffffffffffffffffffffffffffffffffffffffff161415611848576040517f08c379a000000000000000000000000000000000000000000000000000000000815260040161183f90612626565b60405180910390fd5b8073ffffffffffffffffffffffffffffffffffffffff1660008054906101000a900473ffffffffffffffffffffffffffffffffffffffff1673ffffffffffffffffffffffffffffffffffffffff167f8be0079c531659141344cd1fd0a4f28419497f9722a3daafe3b4186f6b6457e060405160405180910390a3806000806101000a81548173ffffffffffffffffffffffffffffffffffffffff021916908373ffffffffffffffffffffffffffffffffffffffff16021790555050565b61190d611b8f565b73ffffffffffffffffffffffffffffffffffffffff1660008054906101000a900473ffffffffffffffffffffffffffffffffffffffff1673ffffffffffffffffffffffffffffffffffffffff161461199a576040517f08c379a0000000000000000000000000000000000000000000000000000000008152600401611991906126e6565b60405180910390fd5b60001515600160008373ffffffffffffffffffffffffffffffffffffffff1673ffffffffffffffffffffffffffffffffffffffff16815260200190815260200160002060000160009054906101000a900460ff16151514611a30576040517f08c379a0000000000000000000000000000000000000000000000000000000008152600401611a2790612666565b60405180910390fd5b60006005811115611a3d57fe5b600060149054906101000a900460ff166005811115611a5857fe5b14611a98576040517f08c379a0000000000000000000000000000000000000000000000000000000008152600401611a8f906126a6565b60405180910390fd5b60018060008373ffffffffffffffffffffffffffffffffffffffff1673ffffffffffffffffffffffffffffffffffffffff16815260200190815260200160002060000160006101000a81548160ff0219169083151502179055506002819080600181540180825580915050600190039060005260206000200160009091909190916101000a81548173ffffffffffffffffffffffffffffffffffffffff021916908373ffffffffffffffffffffffffffffffffffffffff1602179055507fb6be2187d059cc2a55fe29e0e503b566e1e0f8c8780096e185429350acffd3dd81604051611b8491906124b6565b60405180910390a150565b600033905090565b828054600181600116156101000203166002900490600052602060002090601f016020900481019282601f10611bd857805160ff1916838001178555611c06565b82800160010185558215611c06579182015b82811115611c05578251825591602001919060010190611bea565b5b509050611c139190611c17565b5090565b5b80821115611c30576000816000905550600101611c18565b5090565b600081359050611c4381612a39565b92915050565b600082601f830112611c5a57600080fd5b8135611c6d611c688261282c565b6127ff565b91508082526020830160208301858383011115611c8957600080fd5b611c948382846129d9565b50505092915050565b600081359050611cac81612a50565b92915050565b600081359050611cc181612a67565b92915050565b600060208284031215611cd957600080fd5b6000611ce784828501611c34565b91505092915050565b600060208284031215611d0257600080fd5b600082013567ffffffffffffffff811115611d1c57600080fd5b611d2884828501611c49565b91505092915050565b600060208284031215611d4357600080fd5b6000611d5184828501611c9d565b91505092915050565b600060208284031215611d6c57600080fd5b6000611d7a84828501611cb2565b91505092915050565b6000611d8f8383611dbe565b60208301905092915050565b6000611da78383612417565b905092915050565b611db88161297f565b82525050565b611dc781612917565b82525050565b611dd681612917565b82525050565b6000611de78261288d565b611df181856128c8565b9350611dfc83612858565b8060005b83811015611e2d578151611e148882611d83565b9750611e1f836128ae565b925050600181019050611e00565b5085935050505092915050565b6000611e4582612898565b611e4f81856128d9565b935083602082028501611e6185612868565b8060005b85811015611e9d5784840389528151611e7e8582611d9b565b9450611e89836128bb565b925060208a01995050600181019050611e65565b50829750879550505050505092915050565b611eb881612929565b82525050565b611ec781612991565b82525050565b6000611ed8826128a3565b611ee281856128ea565b9350611ef28185602086016129e8565b611efb81612a1b565b840191505092915050565b6000611f11826128a3565b611f1b81856128fb565b9350611f2b8185602086016129e8565b611f3481612a1b565b840191505092915050565b600081546001811660008114611f5c5760018114611f8157611fc5565b607f6002830416611f6d818761290c565b955060ff1983168652808601935050611fc5565b60028204611f8f818761290c565b9550611f9a85612878565b60005b82811015611fbc57815481890152600182019150602081019050611f9d565b82880195505050505b505092915050565b6000611fda6026836128fb565b91507f4f776e61626c653a206e6577206f776e657220697320746865207a65726f206160008301527f64647265737300000000000000000000000000000000000000000000000000006020830152604082019050919050565b600061204060108361290c565b91507f5468652077696e6e6572206973203a20000000000000000000000000000000006000830152601082019050919050565b60006120806039836128fb565b91507f506c6561736520656e6420766f74696e672073657373696f6e206265666f726560008301527f20676574207468652077696e6e696e672070726f706f73616c000000000000006020830152604082019050919050565b60006120e66022836128fb565b91507f54686973206164647265737320697320616c726561647920726567697374657260008301527f65640000000000000000000000000000000000000000000000000000000000006020830152604082019050919050565b600061214c6041836128fb565b91507f5468652070726f706f73616c20726567697374726174696f6e20706572696f6460008301527f2068617320656e646564206f7220686173206e6f74207965742073746172746560208301527f64000000000000000000000000000000000000000000000000000000000000006040830152606082019050919050565b60006121d8601e836128fb565b91507f546865207265676973746572696e6720706572696f64206973206f76657200006000830152602082019050919050565b60006122186011836128fb565b91507f4e6f2073657373696f6e20746f20656e640000000000000000000000000000006000830152602082019050919050565b60006122586020836128fb565b91507f4f776e61626c653a2063616c6c6572206973206e6f7420746865206f776e65726000830152602082019050919050565b60006122986034836128fb565b91507f4120766f74696e67206f722070726f706f73616c2073657373696f6e2069732060008301527f616c726561647920696e2070726f6772657373200000000000000000000000006020830152604082019050919050565b60006122fe602c836128fb565b91507f566f746520706572696f642068617320656e646564206f7220686173206e6f7460008301527f20796574207374617274656400000000000000000000000000000000000000006020830152604082019050919050565b60006123646020836128fb565b91507f412073657373696f6e20697320616c726561647920696e2070726f67726573736000830152602082019050919050565b60006123a46015836128fb565b91507f596f75277265206e6f74207265676973746572656400000000000000000000006000830152602082019050919050565b60006123e46016836128fb565b91507f596f75206861766520616c726561647920766f746564000000000000000000006000830152602082019050919050565b600060608301600083015161242f6000860182612467565b50602083015184820360208601526124478282611ecd565b915050604083015161245c6040860182612467565b508091505092915050565b61247081612968565b82525050565b61247f81612968565b82525050565b61248e816129c7565b82525050565b600061249f82612033565b91506124ab8284611f3f565b915081905092915050565b60006020820190506124cb6000830184611dcd565b92915050565b60006040820190506124e66000830185611daf565b6124f36020830184612485565b9392505050565b600060208201905081810360008301526125148184611ddc565b905092915050565b600060208201905081810360008301526125368184611e3a565b905092915050565b60006020820190506125536000830184611eaf565b92915050565b600060608201905061256e6000830186611eaf565b61257b6020830185611eaf565b6125886040830184612476565b949350505050565b60006020820190506125a56000830184611ebe565b92915050565b60006040820190506125c06000830185611ebe565b6125cd6020830184611ebe565b9392505050565b600060208201905081810360008301526125ee8184611f06565b905092915050565b600060408201905081810360008301526126108185611f06565b905061261f6020830184612476565b9392505050565b6000602082019050818103600083015261263f81611fcd565b9050919050565b6000602082019050818103600083015261265f81612073565b9050919050565b6000602082019050818103600083015261267f816120d9565b9050919050565b6000602082019050818103600083015261269f8161213f565b9050919050565b600060208201905081810360008301526126bf816121cb565b9050919050565b600060208201905081810360008301526126df8161220b565b9050919050565b600060208201905081810360008301526126ff8161224b565b9050919050565b6000602082019050818103600083015261271f8161228b565b9050919050565b6000602082019050818103600083015261273f816122f1565b9050919050565b6000602082019050818103600083015261275f81612357565b9050919050565b6000602082019050818103600083015261277f81612397565b9050919050565b6000602082019050818103600083015261279f816123d7565b9050919050565b60006020820190506127bb6000830184612476565b92915050565b60006060820190506127d66000830186612476565b81810360208301526127e88185611f06565b90506127f76040830184612476565b949350505050565b6000604051905081810181811067ffffffffffffffff8211171561282257600080fd5b8060405250919050565b600067ffffffffffffffff82111561284357600080fd5b601f19601f8301169050602081019050919050565b6000819050602082019050919050565b6000819050602082019050919050565b60008190508160005260206000209050919050565b600081519050919050565b600081519050919050565b600081519050919050565b6000602082019050919050565b6000602082019050919050565b600082825260208201905092915050565b600082825260208201905092915050565b600082825260208201905092915050565b600082825260208201905092915050565b600081905092915050565b600061292282612948565b9050919050565b60008115159050919050565b600081905061294382612a2c565b919050565b600073ffffffffffffffffffffffffffffffffffffffff82169050919050565b6000819050919050565b600060ff82169050919050565b600061298a826129a3565b9050919050565b600061299c82612935565b9050919050565b60006129ae826129b5565b9050919050565b60006129c082612948565b9050919050565b60006129d282612972565b9050919050565b82818337600083830152505050565b60005b83811015612a065780820151818401526020810190506129eb565b83811115612a15576000848401525b50505050565b6000601f19601f8301169050919050565b60068110612a3657fe5b50565b612a4281612917565b8114612a4d57600080fd5b50565b612a5981612968565b8114612a6457600080fd5b50565b612a7081612972565b8114612a7b57600080fd5b5056fea2646970667358221220799376a18c46fe4e804b923832f8bfab482906653a85a2db842995c7aba2b83464736f6c634300060c0033",
  "immutableReferences": {},
  "source": "// SPDX-License-Identifier: MIT\npragma solidity ^0.6.11;\npragma experimental ABIEncoderV2;\n\nimport \"@openzeppelin/contracts/access/Ownable.sol\";\n\ncontract Voting is Ownable {\n\tenum WorkflowStatus {\n\t\tRegisteringVoters,\n\t\tProposalsRegistrationStarted,\n\t\tProposalsRegistrationEnded,\n\t\tVotingSessionStarted,\n\t\tVotingSessionEnded,\n\t\tVotesTallied\n\t}\n\n\tstruct Voter {\n\t\tbool isRegistered;\n\t\tbool hasVoted;\n\t\tuint256 votedProposalId;\n\t}\n\n\tstruct Proposal {\n\t\tuint256 id;\n\t\tstring description;\n\t\tuint256 voteCount;\n\t}\n\n\tWorkflowStatus public currState;\n\tmapping(address => Voter) public voters;\n\taddress[] public addresses;\n\tProposal[] public proposals;\n\tuint256 public proposalId;\n\tuint256 public winningProposalId;\n\n\tevent VoterRegistered(address voterAddress);\n\tevent ProposalsRegistrationStarted();\n\tevent ProposalsRegistrationEnded();\n\tevent ProposalRegistered(uint256 proposalId);\n\tevent VotingSessionStarted();\n\tevent VotingSessionEnded();\n\tevent Voted(address voter, uint256 proposalId);\n\tevent VotesTallied();\n\tevent WorkflowStatusChange(\n\t\t\tWorkflowStatus previousStatus,\n\t\t\tWorkflowStatus newStatus\n\t);\n\n\tfunction addVoter(address _address) external onlyOwner {\n\t\trequire(\n\t\t\tvoters[_address].isRegistered == false,\n\t\t\t\"This address is already registered\"\n\t\t);\n\t\trequire(\n\t\t\tcurrState == WorkflowStatus.RegisteringVoters,\n\t\t\t\"The registering period is over\"\n\t\t);\n\t\tvoters[_address].isRegistered = true;\n\t\taddresses.push(_address);\n\t\temit VoterRegistered(_address);\n\t}\n\n\tfunction isVoter(address _address) public view onlyOwner returns (bool) {\n\t\treturn voters[_address].isRegistered;\n\t}\n\n\tfunction startProposalsSession() external onlyOwner {\n\t\trequire(\n\t\t\tcurrState == WorkflowStatus.RegisteringVoters,\n\t\t\t\"A session is already in progress\"\n\t\t);\n\t\tcurrState = WorkflowStatus.ProposalsRegistrationStarted;\n\t\temit WorkflowStatusChange(\n\t\t\tWorkflowStatus.RegisteringVoters,\n\t\t\tWorkflowStatus.ProposalsRegistrationStarted\n\t\t);\n\t\temit ProposalsRegistrationStarted();\n\t}\n\n\tfunction addProposal(string memory _description) external {\n\t\trequire(\n\t\t\tcurrState == WorkflowStatus.ProposalsRegistrationStarted,\n\t\t\t\"The proposal registration period has ended or has not yet started\"\n\t\t);\n\t\trequire(\n\t\t\tvoters[msg.sender].isRegistered == true,\n\t\t\t\"You're not registered\"\n\t\t);\n\t\tproposals.push(\n\t\t\tProposal({id: proposalId, description: _description, voteCount: 0})\n\t\t);\n\t\tproposalId++;\n\t\temit ProposalRegistered(proposalId);\n\t}\n\n\tfunction endProposalSession() external onlyOwner {\n\t\t\trequire(\n\t\t\t\tcurrState == WorkflowStatus.ProposalsRegistrationStarted,\n\t\t\t\t\"No session to end\"\n\t\t\t);\n\t\t\tcurrState = WorkflowStatus.ProposalsRegistrationEnded;\n\t\t\temit WorkflowStatusChange(\n\t\t\t\tWorkflowStatus.ProposalsRegistrationStarted,\n\t\t\t\tWorkflowStatus.ProposalsRegistrationEnded\n\t\t\t);\n\t\t\temit ProposalsRegistrationEnded();\n\t}\n\n\tfunction startVotingSession() external onlyOwner {\n\t\t\trequire(\n\t\t\t\tcurrState == WorkflowStatus.ProposalsRegistrationEnded,\n\t\t\t\t\"A voting or proposal session is already in progress \"\n\t\t\t);\n\t\t\tcurrState = WorkflowStatus.VotingSessionStarted;\n\t\t\temit WorkflowStatusChange(\n\t\t\t\tWorkflowStatus.ProposalsRegistrationEnded,\n\t\t\t\tWorkflowStatus.VotingSessionStarted\n\t\t\t);\n\t\t\temit ProposalsRegistrationEnded();\n\t}\n\n\tfunction addVote(uint8 _proposalId) external {\n\t\trequire(\n\t\t\tcurrState == WorkflowStatus.VotingSessionStarted,\n\t\t\t\"Vote period has ended or has not yet started\"\n\t\t);\n\t\trequire(\n\t\t\tvoters[msg.sender].isRegistered == true,\n\t\t\t\"You're not registered\"\n\t\t);\n\t\trequire(voters[msg.sender].hasVoted == false, \"You have already voted\");\n\t\tproposals[_proposalId].voteCount++;\n\t\tvoters[msg.sender].votedProposalId = _proposalId;\n\t\tvoters[msg.sender].hasVoted = true;\n\t\temit Voted(msg.sender, _proposalId);\n\t}\n\n\tfunction endVotingSession() external onlyOwner {\n\t\trequire(\n\t\t\tcurrState == WorkflowStatus.VotingSessionStarted,\n\t\t\t\"No session to end\"\n\t\t);\n\t\tcurrState = WorkflowStatus.VotingSessionEnded;\n\t\temit WorkflowStatusChange(\n\t\t\tWorkflowStatus.VotingSessionStarted,\n\t\t\tWorkflowStatus.VotingSessionEnded\n\t\t);\n\t\temit VotingSessionEnded();\n\t}\n\n\tfunction getTheWinningProposal() external onlyOwner returns (uint256) {\n\t\trequire(\n\t\t\tcurrState == WorkflowStatus.VotingSessionEnded,\n\t\t\t\"Please end voting session before get the winning proposal\"\n\t\t);\n\t\tuint256 winningVoteCount;\n\t\tfor (uint256 id = 0; id < proposals.length; id++) {\n\t\t\tif (proposals[id].voteCount > winningVoteCount) {\n\t\t\t\twinningVoteCount = proposals[id].voteCount;\n\t\t\t\twinningProposalId = id;\n\t\t\t}\n\t\t}\n\t\tcurrState = WorkflowStatus.VotesTallied;\n\t\temit WorkflowStatusChange(\n\t\t\tWorkflowStatus.VotingSessionEnded,\n\t\t\tWorkflowStatus.VotesTallied\n\t\t);\n\t\temit VotesTallied();\n\t}\n\n\tfunction showWinnerProposal()\n\t\texternal\n\t\tview\n\t\treturns (string memory, uint256)\n\t{\n\t\treturn (\n\t\t\tstring(\n\t\t\t\tabi.encodePacked(\n\t\t\t\t\t\"The winner is : \",\n\t\t\t\t\tproposals[winningProposalId].description\n\t\t\t\t)\n\t\t\t),\n\t\t\tproposals[winningProposalId].voteCount\n\t\t);\n\t}\n\n\tfunction getAddresses() public view returns (address[] memory) {\n\t\treturn addresses;\n\t}\n\n\tfunction getProposalLength() public view returns (uint256) {\n\t\treturn proposals.length;\n\t}\n\n\tfunction getProposalById(uint8 id) public view returns (string memory) {\n\t\treturn proposals[id].description;\n\t}\n\tfunction getProposals() public view returns (Proposal[] memory ) {\n\t\treturn proposals;\n    }\n}\n",
  "sourcePath": "/mnt/c/Users/damie/Documents/drizzle-voting/contracts/Voting.sol",
  "compiler": {
    "name": "solc",
    "version": "0.6.12+commit.27d51765.Emscripten.clang"
  },
  "schemaVersion": "3.3.2",
  "updatedAt": "2020-12-04T17:13:09.278Z",
  "networkType": "ethereum",
  "devdoc": {
    "kind": "dev",
    "methods": {
      "owner()": {
        "details": "Returns the address of the current owner."
      },
      "renounceOwnership()": {
        "details": "Leaves the contract without owner. It will not be possible to call `onlyOwner` functions anymore. Can only be called by the current owner. NOTE: Renouncing ownership will leave the contract without an owner, thereby removing any functionality that is only available to the owner."
      },
      "transferOwnership(address)": {
        "details": "Transfers ownership of the contract to a new account (`newOwner`). Can only be called by the current owner."
      }
    },
    "version": 1
  },
  "userdoc": {
    "kind": "user",
    "methods": {},
    "version": 1
  }
}